:100000000C94AE000C9427110C944E110C94D60055
:100010000C94D6000C94D6000C94D6000C94D60008
:100020000C94D6000C94D6000C94D6000C94AD0918
:100030000C94D6000C94D6000C94D6000C94D600E8
:100040000C94CA110C94D6000C9439100C946B10BB
:100050000C94D6000C94D6000C94D6000C94D600C8
:100060000C94D6000C94D60007634236B79BD8A7F1
:100070001A39685618AEBAAB558C1D3CB7CC5763CD
:10008000BD6DEDFD753EF6177231BF000000803F7B
:1000900008000000BE922449123EABAAAA2ABECD97
:1000A000CCCC4C3E00000080BEABAAAAAA3E000009
:1000B0000000BF000000803F000000000008417801
:1000C000D3BB4387D1133D190E3CC3BD4282AD2B38
:1000D0003E68EC8276BED98FE1A93E4C80EFFFBE30
:1000E00001C4FF7F3F00000000007274049274049A
:1000F00048940478C40C72B40400000008000201A3
:1001000000000304070000000000000000010204DA
:100110000810204080010204081020010204081089
:100120002004040404040404040202020202020380
:10013000030303030300000000230026002900003E
:10014000000000250028002B0000000000240027EC
:10015000002A000023019E069B102B0111241FBEC4
:10016000CFEFD8E0DEBFCDBF12E0A0E0B1E0E4E425
:10017000F2E302C005900D92AC3BB107D9F725E040
:10018000ACEBB2E001C01D92A63AB207E1F711E074
:10019000CAE5D1E004C02297FE010E944017C43591
:1001A000D107C9F70E94B9110C9415190C940000DD
:1001B00060911401709115018091160190911701C1
:1001C0000E946B1420E034E244E759E40E94D71304
:1001D000AB01BC0181EC93E00E94050B4091100142
:1001E00050911101609112017091130181EC93E023
:1001F0000E94960E60910F0181EC93E00E94680EC0
:1002000060910E0181EC93E00E94D30D60910A0190
:1002100070910B0181EC93E00E94710D40E06091C0
:100220000D0181EC93E00E94F40C40910C0169E314
:1002300081EC93E00C947407DC01ED91FC9101904A
:10024000F081E02D099429EE34E042E06AE081EC8F
:1002500093E00C94300A89E991E09093C203809373
:10026000C1030895803C49F46BED70E08CEF94E09D
:100270000E941C016CED70E00AC08B3D61F46BEDD7
:1002800070E08CEF94E00E941C016DED70E08CEF4B
:1002900094E00C941C01682F8CEF94E00C94720F86
:1002A000BF92CF92DF92EF92FF920F931F93CF9363
:1002B000DF93C82FF62EC72ED42E122FE32E60EC1C
:1002C00070E08CEF94E00E941C018C2F0E943201A0
:1002D000BF2CCF2DDC2D8C2F8B198D1520F48991FF
:1002E0000E943201F8CFF12EC12FDE2D8C2F8F19F5
:1002F000801720F489910E943201F8CF60EC70E001
:100300008CEF94E0DF91CF911F910F91FF90EF90D0
:10031000DF90CF90BF900C941C010F931F93CF934D
:10032000DF9300D000D01F92CDB7DEB726E040E0CB
:1003300052EC61E070E08CEF94E00E94D70F81EC0A
:1003400093E00E94820D81111BC015E0ECE1F1E009
:10035000DE011196812F01900D928A95E1F700E060
:1003600020E030E045E0BE016F5F7F4F87E00E94F4
:10037000500168E873E180E090E00E944312E6CF0C
:100380000E94D800E091C103F091C20304A0F5A13E
:10039000E02D61E081EC93E0099581EC93E00E940F
:1003A0004A0C0F900F900F900F900F90DF91CF910C
:1003B0001F910F9108950F931F93CF93DF93CDB7A4
:1003C000DEB7C350D1400FB6F894DEBF0FBECDBF2D
:1003D00081EC93E00E946D0C882309F486C08BEFBA
:1003E000CD5FDE4F8883C350D140AE014D5F5E4F7D
:1003F000BE016F5F7F4F81EC93E00E94C50A8823A6
:1004000009F473C0E091C103F091C20306A0F7A103
:10041000E02D81EC93E00995C450DF4F8883CC5FD9
:10042000D040E091C103F091C20300A4F1A5E02DFA
:1004300081EC93E00995C350DF4F8883CD5FD040B6
:10044000E091C103F091C20302A4F3A5E02D81EC79
:1004500093E00995C250DF4F8883CE5FD040E09192
:10046000C103F091C20304A4F5A5E02D81EC93E053
:100470000995C150DF4F8883CF5FD040CD5FDE4FFD
:100480000881C350D1409E012F5F3F4F44E0BE0121
:1004900064507F4F80E00E945001E091C103F091D1
:1004A000C20306A4F7A5E02D81EC93E00995182F6F
:1004B000092F81EC93E00E94CB0DC050DF4F0883E1
:1004C000C050D140CF5FDE4F1883C150D140CE5FC6
:1004D000DE4F8883C250D14000E020E030E043E0AE
:1004E000BE01739587E00E945001CD5FDE4F0FB6CD
:1004F000F894DEBF0FBECDBFDF91CF911F910F915A
:100500000895EF92FF920F931F93CF93DF93CDB790
:10051000DEB72E970FB6F894DEBF0FBECDBF11E049
:100520008CEF94E00E94F40E892B09F462C18CEFE9
:1005300094E00E940D0F9091BE02803C09F02DC105
:10054000992309F41FC1E090BF02F090C002E114AA
:10055000F10409F417C18091BC02811113C19FEF0E
:100560009E0D8091C102833109F4E4C078F480319A
:1005700009F497C020F4882309F448C003C18131ED
:1005800009F4ACC0823109F4B8C0FCC0853109F46B
:10059000E3C008F4DAC0863109F4E5C0803209F01E
:1005A000F1C08091140190911501209116013091B4
:1005B000170139832A839B838C838091100190914A
:1005C000110120911201309113013D832E839F83ED
:1005D000888780910F01898780910E018A87809199
:1005E0000D018B8780910C018C8780910A0190917D
:1005F0000B019D878E8700E020E030E04EE0BE01D9
:100600006F5F7F4F81E20E945001BCC0943008F4BC
:10061000B9C0E091C103F091C203048CF58DE02DC7
:100620006091C20281EC93E00995E091C103F091E1
:10063000C203068CF78DE02D6091C30281EC93E03C
:100640000995E091C103F091C20300A0F1A1E02D52
:100650006091C40281EC93E00995E091C103F091AF
:10066000C20302A0F3A1E02D4FEF6091C50281EC1F
:1006700093E009954BEF4E0D66EC72E081EC93E050
:100680000E94A20CE091C103F091C2030088F1899D
:10069000E02D81EC93E0099581EC93E00E944A0CF7
:1006A00071C0943009F06EC02091C2028091C302E3
:1006B00090E0A0E0B0E0DC0199278827B22B2091E0
:1006C000C502822B2091C402922B80931401909337
:1006D0001501A0931601B09317010CC0913009F0D9
:1006E00051C08091C2029AEF980F973008F04AC02B
:1006F00080930F010E94D80045C0943009F042C099
:100700002091C2028091C30290E0A0E0B0E0DC0141
:1007100099278827B22B2091C502822B2091C402F1
:10072000922B8093100190931101A0931201B0932A
:100730001301E0CF913031F58091C2029BEF980F09
:10074000943000F580930E01D5CF9130D9F480918B
:10075000C20280930D01CECF9130A1F48091C202EC
:1007600080930C01C7CF923069F48091C20290E06F
:10077000982F88272091C302822B90930B0180939E
:100780000A01B8CF1093BE021092BD021092BC02B3
:100790001092C0021092BF02C3CE992309F4C0CEBA
:1007A0009091BD02992341F01092BD028C3D49F019
:1007B0008D3DE1F48BED06C08B3D21F41093BD021D
:1007C000AFCE80EC2091BF023091C0022F3F3105A7
:1007D00009F060F4A9014F5F5F4F5093C00240934E
:1007E000BF02F901EF53FD4F80839ACE1093BC02F4
:1007F00097CE0E94DB012E960FB6F894DEBF0FBE97
:10080000CDBFDF91CF911F910F91FF90EF90089591
:10081000CF93CFB7F8948091E804811127C0EBE221
:10082000F1E08491E7E1F1E09491E82FF0E0EE0F40
:10083000FF1FE75BFE4FA591B4918C91892321F4B2
:1008400061E08AE00E94131361E08AE00E94DA12FC
:100850008CB580618CBD8CB580648CBD61E08DE011
:100860000E94DA1261E08BE00E94DA128091E804C3
:100870008F5F8093E804CFBFCF9108959FB7F8941E
:100880008091E804882319F081508093E8048091D6
:10089000E804811105C08CB58F7B8CBD1092E704F4
:1008A0009FBF08952FB7F894882339F0813039F02D
:1008B00082E08093E70490E003C091E001C092E001
:1008C0008091E604892B8093E6048091E7048111EE
:1008D00003C081E08093E7042FBF089529E931E048
:1008E000FC0131832083089581E0089580E008951C
:1008F000FC0165830895FC0164830895FC0162870F
:100900000895FC0163870895FC016487089540956C
:10091000FC0125854223462B45870895FC018681ED
:100920000895FC0187810895FC0180850895FC01EC
:1009300081850895FC01868597850895FC01828153
:1009400093810895FC0173836283089580E0089584
:10095000FC01808991890895FC0182899389089519
:10096000FC0184899589089529E931E0FC013183EE
:1009700020830C94C811CF93DF93EC018A819B8173
:10098000039719F40E94B711F9CF81E0DF91CF915D
:100990000895CF92DF92EF92FF920F931F93CF9320
:1009A000DF93EC018B016B01E12CF12CE881F981E3
:1009B0000680F781E02DCE01099581110AC00E94C1
:1009C000B7110115110591F3C701B6010E94431239
:1009D000EDCFDF91CF911F910F91FF90EF90DF90BE
:1009E000CF9008954F925F926F927F928F929F92D5
:1009F000AF92BF92CF92DF92EF92FF920F931F932D
:100A0000CF93DF93EC016B018A010E9414124B011A
:100A10005C01E12CF12C2801612C712C0E94141234
:100A2000681979098A099B096C157D058E059F0552
:100A300098F4E881F9810680F781E02DCE010995CF
:100A400081110CC00E94B7110115110539F3C301C2
:100A5000B2010E944312E2CF80E001C081E0DF9149
:100A6000CF911F910F91FF90EF90DF90CF90BF90AB
:100A7000AF909F908F907F906F905F904F90089570
:100A80008F929F92AF92BF92CF92DF92EF92FF929E
:100A9000CF93DF93EC016B010E9414124B015C01B8
:100AA000E12CF12C0E941412681979098A099B091A
:100AB0006C157D058E059F0538F48A819B8103970F
:100AC00029F40E94B711EECF80E001C081E0DF91F0
:100AD000CF91FF90EF90DF90CF90BF90AF909F901D
:100AE0008F900895CF92DF92EF92FF920F931F9312
:100AF000CF93DF93EC018F89988D892B89F10E9428
:100B000014126B017C01E881F981008CF18DE02DDC
:100B1000CE010995882321F10E9414126C197D09D8
:100B20008E099F090F89188D20E030E006171707FE
:100B30002807390798F02AE030E040E050E061E013
:100B400070E080E090E00E9499119B01AC01A4E666
:100B5000B0E00E9444170E944312D5CF80E001C04C
:100B600081E0DF91CF911F910F91FF90EF90DF9087
:100B7000CF900895FC0189E991E0918380831382ED
:100B800012828FEF84838287838714861586118A69
:100B9000108A138A128A158A148A108E178A089569
:100BA00008950895089508950895FC017583648358
:100BB0000895FC01778366830895FC017383628343
:100BC0000895FC0189ED91E09183808373836283B2
:100BD000558344833783268308956EBD00000DB48A
:100BE00007FEFDCF8EB5089508950895FC01308568
:100BF00021858091E704882399F09FB7F89480912C
:100C0000E704813059F48DB38093E5044DB38091AE
:100C1000E604809584238DBB9FBF02C09093E504BA
:100C20003CBD2DBD08958091E704882361F09FB7F6
:100C3000F8942091E7048091E504213019F48DBBEC
:100C40009FBF08958FBF08950C943E04862F0C9487
:100C500052040F931F93CF93FC01828193818430C0
:100C6000910569F08330910579F08230910589F022
:100C70000197A1F440E854E86EE170E013C040E051
:100C800054E264EF70E00EC040E052E16AE770E0C9
:100C900009C040E059E06DE370E004C040E452E474
:100CA0006FE070E0A481B58186819781009771F033
:100CB0008130910539F08230910531F0039731F49C
:100CC000CCE005C0C4E003C0C8E001C0C0E080E0E3
:100CD00000E012E12AE730E040175107620773078E
:100CE00040F436952795179507958F5F8630A1F7C5
:100CF00087E021E02827119711F430E701C030E5A3
:100D0000822F90E09595879583708C2B832B80871D
:100D100021702187CF911F910F910C940804CF93DC
:100D2000DF93EC010E94E10583EF91E099838883D2
:100D300080E588871986DF91CF91089520E030E023
:100D400040E050E060E070E089EE94E00C948F06A3
:100D5000CF93DF93EC01898D9A8DDC01ED91FC91AD
:100D60000088F189E02D0995E881F981E05CFF4F69
:100D70000190F081E02DCE01DF91CF910994CF93C6
:100D8000DF93EC01E881F981EE5BFF4F0190F08188
:100D9000E02D0995898D9A8DDC01ED91FC910288F9
:100DA000F389E02DDF91CF91099429E931E0FC012D
:100DB00031832083089529E931E0FC0131832083C8
:100DC0000C94C811CF93DF93EC01898D9A8DDC01CF
:100DD000ED91FC910680F781E02D09958B8D8F3F79
:100DE00019F061E00E94DA12E881F981EE5BFF4FB1
:100DF0000190F081E02DCE01099564E670E080E07D
:100E000090E00E94431281E0DF91CF910895FC01B0
:100E1000838D8F3F19F060E00C9413130895FC014B
:100E2000838D8F3F19F061E00C9413130895EF92B6
:100E3000FF920F931F93CF93DF931F92CDB7DEB72F
:100E40007C018A0169830E94BA058DE092E0F70176
:100E500091838083128F018F6981638F0F90DF915F
:100E6000CF911F910F91FF90EF900895EF92FF9215
:100E70000F931F93CF93DF931F92CDB7DEB77C0103
:100E80001FB7F894DC01ED91FC9104ACF5ADE02DB9
:100E900069830995F701818D928DDC01ED91FC91BB
:100EA00069816F770190F081E02D0995F701818DBF
:100EB000928DDC01ED91FC910190F081E02D60E0DC
:100EC0000995082FD701ED91FC9106ACF7ADE02D07
:100ED000C70109951FBF802F0F90DF91CF911F9100
:100EE0000F91FF90EF900895EF92FF920F931F9351
:100EF000CF93DF9300D0CDB7DEB77C011FB7F89456
:100F0000DC01ED91FC9104ACF5ADE02D4A836983E1
:100F10000995F701818D928DDC01ED91FC9169813C
:100F200060680190F081E02D0995082FF701818D0F
:100F3000928DDC01ED91FC910190F081E02D4A81D0
:100F4000642F099581E090E00E946B12D701ED912A
:100F5000FC9106ACF7ADE02DC70109951FBF802FAE
:100F60000F900F90DF91CF911F910F91FF90EF9015
:100F70000895AF92BF92DF92EF92FF920F931F936B
:100F8000CF93DF9300D01F92CDB7DEB75C01E22E86
:100F9000FFB6F894DC01ED91FC9104ACF5ADE02DC9
:100FA0004A835B8369830995F501818D928DDC010C
:100FB000ED91FC9169816F770190F081E02D0995A9
:100FC000D82E4A81042F5B81152FE40EE01679F0AC
:100FD000F501818D928DDC01ED91FC910190F08104
:100FE000E02D60E00995F80181938F01EFCFD501E5
:100FF000ED91FC9106ACF7ADE02DC5010995FFBE62
:101000008D2D0F900F900F90DF91CF911F910F9129
:10101000FF90EF90DF90BF90AF900895AF92BF9296
:10102000DF92EF92FF920F931F93CF93DF9300D045
:101030001F92CDB7DEB75C01E22EFFB6F894DC015B
:10104000ED91FC9104ACF5ADE02D4A835B8369839F
:101050000995F501818D928DDC01ED91FC916981FD
:1010600060680190F081E02D0995D82E4A81042F07
:101070005B81152FE40EE01671F0F501818D928DE4
:10108000D8016D918D01DC01ED91FC910190F08111
:10109000E02D0995F0CFD501ED91FC9106ACF7ADAF
:1010A000E02DC5010995FFBE8D2D0F900F900F907B
:1010B000DF91CF911F910F91FF90EF90DF90BF9044
:1010C000AF900895DC0159968D919C915A97DC015F
:1010D000ED91FC910488F589E02D0994CF93DF937D
:1010E000EC018B8D0E94491321E0892B09F420E04B
:1010F0008E8D8227DF91CF910895FC01848D0C9411
:101100001313FC01278D6227858D0C941313CF9345
:10111000DF93EC018A819B81029761F060E0CE0150
:101120000E94810860E0CE010E947D0882E090E08C
:101130009B838A83DF91CF910895862F869586952C
:10114000887098E0980F891749F0E82FF0E0EF5A7F
:10115000FD4F2081621719F08F5FF5CF80E0089571
:101160001F93CF93DF93EC010E946E08882319F040
:101170009BA19F5F9BA39AA1891771F09CA19035B9
:1011800018F42BE030E002C02DE130E09CA1290FE3
:10119000311D2CA38AA303C08CA18C5E8CA38CA1CF
:1011A000803A08F46EC08EA19FA1969587959FA363
:1011B0008EA38BA1853028F08EA19FA198609FA35C
:1011C0008EA38CA1805A8CA31BA28DA1882309F425
:1011D00046C088A58F5F88A78C3008F452C06EA1E6
:1011E0007FA16F73CE010E949D08182F6EA17FA171
:1011F00046E0769567954A95E1F7CE010E949D08F5
:1012000090E1199F90011124822BBE0163597F4FF9
:10121000FB019081DE01A459BF4F9923B1F0FB017E
:10122000908121E0290F2083AE01490F511DFA0161
:1012300081A7FB0190818C91981778F01DA281E025
:1012400088A3CE010E94870808C08C939C91973098
:1012500090F09C91943478F4E2CF18A612C08EA13D
:101260009FA188339B4069F481E08DA318A6C359E0
:10127000DF4F188206C01DA2888999890196998B33
:10128000888BDF91CF911F910895CF92DF92EF92DB
:10129000FF920F931F93CF93DF93EC018C010059C2
:1012A0001F4FF801808191E0980F9083811136C023
:1012B0006E01FEE6CF0ED11CF6018081EF56FF4F86
:1012C0009081891748F0CE010E9487088C899D89FA
:1012D00001969D8B8C8B22C0FE01E80FF11DEF580B
:1012E000FF4F608170E07E01FFE6EF0EF11CF70119
:1012F000808191E0980F908302C0759567958A95DB
:10130000E2F76170CE010E947D08F701808186308E
:1013100028F01082F60180818F5F8083F801808140
:10132000883008F01082DF91CF911F910F91FF90CC
:10133000EF90DF90CF900895FC012281338124301B
:10134000310511F40C94B008FC0122813381233063
:10135000310511F40C94450908951F920F920FB6B0
:101360000F9211242F933F934F935F936F937F932B
:101370008F939F93AF93BF93EF93FF938091F30469
:101380009091F4040E949C09FF91EF91BF91AF915D
:101390009F918F917F916F915F914F913F912F918D
:1013A0000F900FBE0F901F90189581E008958BEF5E
:1013B000089529E931E0FC0131832083089529E96A
:1013C00031E0FC01318320830C94C811CF93DF936B
:1013D000EC018A819B810597C9F0E881F981EC5B7A
:1013E000FF4F0190F081E02D65E070E0CE0109959E
:1013F00047E061E0CE010E94740740E860E4CE015E
:101400000E94740785E090E09B838A838A819B8198
:10141000059719F40E94B711F9CF8E89DF91CF910A
:101420000895CF93DF93EC018A819B810197A1F00E
:10143000E881F981EC5BFF4F0190F081E02D61E0E4
:1014400070E0CE01099540E061E0CE010E94740792
:1014500081E090E09B838A8381E0DF91CF910895C2
:101460001F93CF93DF93EC01142FA9010E9417075C
:1014700085E692E099838883FE01E15EFE4F10824B
:10148000349610821D8F8FEF8E8F319781E080838D
:101490001C8EDF91CF911F9108951F93CF93DF93FF
:1014A000EC018D8D8F3F31F08230C9F18330C9F16D
:1014B00080E03DC01FEF8D8D8F3F79F160E00E948D
:1014C000DA128E8D8F3F49F48091F504843080F7D5
:1014D00091E0980F9093F5048E8F8E8DE82FF0E0B9
:1014E000EE0FFF1FEA50FB4FD183C083811105C06F
:1014F00043E050E06FE27CE00DC0813029F443E02E
:1015000050E068E37CE006C0823091F643E050E0B2
:1015100061E47CE0812F0E94071181E008C010E0A7
:1015200001C011E0612FCE010E946208C4CFDF919B
:10153000CF911F910895FC01878D8430D8F080A150
:10154000868381A1878382A1808783A1818785810A
:10155000811107C096818481981719F086818F3F89
:1015600049F4828993890196938B828BE15EFE4FC9
:1015700081E0808308952FB7F894FC01E15EFE4F6F
:101580001082FC01178E2FBF0895CF92DF92EF9249
:10159000FF920F931F93CF93DF93EC017B018A019E
:1015A000E881F9810680F781E02D0995D82E8823FE
:1015B00011F1E114F104E1F001151105C9F0CFB604
:1015C000F8942F8D30E023503109F801408150E02C
:1015D000421753071CF09F8D94509083F80140816F
:1015E00050E0BE016C5D7F4FC7010E940419CFBE61
:1015F000CE010E94BB0A8D2DDF91CF911F910F91DB
:10160000FF90EF90DF90CF9008958F929F92AF92CE
:10161000BF92CF92DF92EF92FF921F93CF93DF930F
:10162000EC014A015B0120E034E244E759E4C501E2
:10163000B4010E942F1520E034E244E752E40E94F6
:10164000D7130E943F146B017C01AC0166277727FA
:1016500066E0CE010E94740777276F2D5E2D4D2D19
:1016600067E0CE010E9474074C2D68E0CE010E9415
:101670007407C05EDE4F11E020E030EC42E454E439
:10168000C501B4010E942B1587FD10E0188381E08D
:10169000DF91CF911F91FF90EF90DF90CF90BF909F
:1016A000AF909F908F900895CF93DF93EC018A8144
:1016B0009B810297A1F0E881F981EC5BFF4F0190DB
:1016C000F081E02D62E070E0CE01099541E061E03B
:1016D000CE010E94740782E090E09B838A83DF91B1
:1016E000CF9108950F931F93CF93DF93EC0162E1A5
:1016F0000E943607182F6CE1CE010E943607082F92
:101700004FEF62E1CE010E9474072A813B812430B1
:10171000310509F5812F807A41F4FE01EE5DFE4F1F
:1017200080818823C1F006FD16C0888999890196B9
:10173000998B888BCE010E94BB0A4FEF62E1CE01EC
:101740000E9474074FEF62E1CE01DF91CF911F91AC
:101750000F910C9474072A813B812430310511F4D8
:1017600016FD0EC02A813B812330310509F069C086
:1017700013FF67C08C899D8901969D8B8C8B6BC0F4
:1017800063E1CE010E943607182F60E1CE010E946E
:101790003607482F6DE0CE010E947407212FAE015D
:1017A000405E5F4F60E0CE010E94B9071F8F69E184
:1017B000CE010E9436078E010F5D1E4F87FD8D5FA3
:1017C00085958595F80180836AE1CE010E943607F0
:1017D00090E09F878E87F801208127FF09C08E85C2
:1017E0009F85820F911D27FD9A959F878E870DC03B
:1017F0008E859F8544E0880F991F4A95E1F76FE039
:1018000070E00E94E9167F876E87FE01E05EFE4F62
:101810008081882329F08E859F858D59910904C088
:101820008E859F85845A91099F878E87CE010E945D
:101830009B0AFE01E15EFE4F8081882309F47DCF83
:101840000AC02A813B812530310509F076CF12FF8D
:1018500074CF11701E8BCE010E94540B6ECF8091FD
:10186000F6049091F704009711F00C94720B089510
:101870008091F8049091F904009711F00C94720B88
:1018800008958091FA049091FB04009711F00C9454
:10189000720B0895CF93DF93EC018A819B810497AB
:1018A000C9F0E881F981EC5BFF4F0190F081E02DF8
:1018B00064E070E0CE01099545E061E0CE010E9450
:1018C000740740E060E4CE010E94740784E090E079
:1018D0009B838A83DF91CF910895CF93DF93EC01AF
:1018E0008A819B81039739F0CE010E944A0CC15E28
:1018F000DE4F888101C080E0DF91CF910895CF93C2
:10190000DF93EC018A819B810397C9F0E881F9811B
:10191000EC5BFF4F0190F081E02D63E070E0CE01C1
:10192000099543E061E0CE010E94740740E460E461
:10193000CE010E94740783E090E09B838A83DF914D
:10194000CF910895EF92FF920F931F93CF93DF9360
:10195000EC018B01F42E8BEF8417E8F1E881F9811B
:101960000088F189E02DCE010995CE010E94540B2B
:10197000E881F9810688F789E02DCE010995E82EE6
:10198000882351F140E06DE0CE010E9474074A8542
:1019900060E0CE010E9474074B8560E0CE010E949A
:1019A00074074C8560E0CE010E9474074D8560E0AD
:1019B000CE010E9474072F2DA80160E0CE010E9485
:1019C0000E0844E04F0D62E2CE010E947407CE0182
:1019D0000E947F0C01C0E12C8E2DDF91CF911F91D1
:1019E0000F91FF90EF9008951F93CF93DF93EC0139
:1019F000162F4C8F442381F0603124F467FF03C01D
:101A000010E001C01FE0412F406769E0CE010E9455
:101A1000740744E06DE419C065312CF462305CF069
:101A2000623154F001C014E147E06DE4CE010E9440
:101A30007407135006C012E044E06DE4CE010E942A
:101A400074074EEF410F406869E0CE01DF91CF91FE
:101A50001F910C9474070F931F93CF93DF93EC01A6
:101A60008B01FB0140816DE10E947407F801418107
:101A70006EE1CE010E947407F801428166E2CE0158
:101A8000DF91CF911F910F910C9474070F931F93C7
:101A9000CF93DF9300D01F92CDB7DEB78C016630B5
:101AA0007105B4F49B01220F331F260F371F2651F7
:101AB0003F4F43E050E0B901CE0101960E94FB1870
:101AC000BE016F5F7F4FC8010E942B0D81E001C0F6
:101AD00080E00F900F900F90DF91CF911F910F91A9
:101AE00008951F93CF93DF93EC01162F472F60E2E9
:101AF0000E947407412F61E2CE01DF91CF911F91C7
:101B00000C9474071F93CF93DF93EC010E94E206BD
:101B1000811102C010E03AC0CE010E944D0A182F78
:101B20008823C1F340E861E0CE010E9474076AE0B7
:101B300070E080E090E00E94431261E0CE010E94DC
:101B40003607803839F740E06EE0CE010E94740716
:101B500040E06FE0CE010E947407CE010E94540B5A
:101B600060E070E0CE010E94460D68E070E0CE01BA
:101B70000E94710D40E050E069ED73E4CE010E94D7
:101B8000050B40E06DE0CE010E94F40C812FDF9147
:101B9000CF911F9108958F5D9E4FFC018081992701
:101BA00087FD909508951F93CF93DF93EC016630E6
:101BB00029F0673029F030F412E005C014E003C0CA
:101BC00016E001C018E06DE1CE010E943607482FF3
:101BD000417F412B6DE1CE01DF91CF911F910C949C
:101BE0007407BF92CF92DF92EF92FF920F931F93F1
:101BF000CF93DF93CDB7DEB7A8970FB6F894DEBFCB
:101C00000FBECDBF8C016DE10E943607F82E6EE14C
:101C1000C8010E94360798E2EDE6F1E0DE01119678
:101C200001900D929A95E1F782958F70682F70E080
:101C300080E090E00E946B149B01AC0160E070E0DA
:101C400080E090E40E94921520E030E04AE754E4FE
:101C50000E942F15EF2DF0E024E0F595E7952A95E9
:101C6000E1F7EE0FFF1FEE0FFF1F21E030E02C0F1A
:101C70003D1FE20FF31F20813181428153810E9479
:101C8000D7136B017C0166E2C8010E943607877F8B
:101C9000B82E20E030E040E851E4C701B6010E94D0
:101CA0002B154B2D18160CF4486066E2C801A89657
:101CB0000FB6F894DEBF0FBECDBFDF91CF911F915D
:101CC0000F91FF90EF90DF90CF90BF900C9474072E
:101CD0001F93CF93DF93EC01673060F0673061F0C2
:101CE000683061F0693061F06A3061F06B3061F04A
:101CF00010EC0BC010E609C010E707C010E805C0E3
:101D000010E903C010EA01C010EB6EE1CE010E94A1
:101D10003607482F4F70412B6EE1CE010E947407A9
:101D2000CE01DF91CF911F910C94F10D1F93CF93B2
:101D3000DF93EC0149378EE158076105710594F195
:101D4000413A88E258076105710574F1413F8CE31F
:101D500058076105710554F1413481E55807610563
:101D6000710534F143318AE758076105710514F1B3
:101D7000453E82EA580761057105F4F0453284EF6B
:101D8000580761057105D4F0493488EE580781E0A1
:101D900068077105ACF04139504D6340710594F40A
:101DA00010E811C010E00FC010E10DC010E20BC030
:101DB00010E309C010E407C010E505C010E603C039
:101DC00010E701C010E96DE1CE010E943607482FEF
:101DD0004F70412B6DE1CE010E947407CE01DF915F
:101DE000CF911F910C94F10DFC01818D228D90E01B
:101DF000805C9F4F821B91098F7399270895FC0186
:101E0000918D828D981731F0828DE80FF11D858DAF
:101E100090E008958FEF9FEF0895FC01918D828DE2
:101E2000981761F0828DDF01A80FB11D5D968C912E
:101E3000928D9F5F9F73928F90E008958FEF9FEF39
:101E4000089581E990E1892B49F080E090E0892BA9
:101E500029F00E94911081110C9400000895FC015A
:101E6000848DDF01A80FB11DA35ABF4F2C91848D23
:101E700090E001968F739927848FA689B7892C9358
:101E8000A089B1898C9180648C93938D848D9813F3
:101E900006C00288F389E02D80818F7D80830895BC
:101EA000CF93DF93EC01888D8823C9F0EA89FB8901
:101EB000808185FD05C0A889B9898C9186FD0FC0F8
:101EC0000FB607FCF5CF808185FFF2CFA889B989CD
:101ED0008C9185FFEDCFCE010E942F0FE7CFDF91D0
:101EE000CF910895CF92DF92FF920F931F93CF93DC
:101EF000DF931F92CDB7DEB76C0181E0D601589613
:101F00008C9358975B969C915B975C968C915C97B1
:101F1000981307C05096ED91FC915197808185FDF3
:101F20002EC0F601038D10E00F5F1F4F0F731127B6
:101F3000F02EF601848DF81211C00FB607FCF9CF10
:101F4000D6015096ED91FC915197808185FFF1CF9C
:101F5000C60169830E942F0F6981EBCF838DE80F43
:101F6000F11DE35AFF4F6083D6015B960C935B979C
:101F70005296ED91FC915397808180620CC0D601FE
:101F80005696ED91FC91579760835096ED91FC9198
:101F9000519780818064808381E090E00F90DF9191
:101FA000CF911F910F91FF90DF90CF900895BF9236
:101FB000CF92DF92EF92FF92CF93DF93EC016A0111
:101FC0007B01B22EE889F98982E08083411581EE98
:101FD000580761057105A1F060E079E08DE390E0BC
:101FE000A70196010E94FD162150310941095109AE
:101FF0005695479537952795211580E1380798F034
:10200000E889F989108260E874E88EE190E0A70120
:1020100096010E94FD16215031094109510956953A
:10202000479537952795EC85FD853083EE85FF85AF
:102030002083188EEC89FD89B082EA89FB89808132
:1020400080618083EA89FB89808188608083EA8956
:10205000FB89808180688083EA89FB8980818F7D0C
:102060008083DF91CF91FF90EF90DF90CF90BF9072
:1020700008951F920F920FB60F9211242F938F93F2
:102080009F93EF93FF93E0910C05F0910D058081F4
:10209000E0911205F091130582FD12C090818091AC
:1020A00015058F5F8F7320911605821751F0E0910F
:1020B0001505F0E0E450FB4F958F8093150501C0A6
:1020C0008081FF91EF919F918F912F910F900FBE83
:1020D0000F901F9018951F920F920FB60F92112418
:1020E0002F933F934F935F936F937F938F939F9320
:1020F000AF93BF93EF93FF938CEF94E00E942F0F69
:10210000FF91EF91BF91AF919F918F917F916F91CF
:102110005F914F913F912F910F900FBE0F901F90A5
:1021200018958CEF94E00E94F40E21E0892B09F4BD
:1021300020E0822F08951092FF041092FE0488EE92
:1021400093E0A0E0B0E08093000590930105A09398
:102150000205B09303058FEA92E09093FD0480930B
:10216000FC0485EC90E0909309058093080584ECCD
:1021700090E090930B0580930A0580EC90E090939B
:102180000D0580930C0581EC90E090930F058093F2
:102190000E0582EC90E0909311058093100586EC7B
:1021A00090E09093130580931205109215051092FC
:1021B000160510921705109218050895CF92DF9218
:1021C000EF92FF920F931F93CF93DF937C016A01ED
:1021D000EB0100E010E00C151D0571F06991D701CD
:1021E000ED91FC910190F081E02DC7010995892BBB
:1021F00019F00F5F1F4FEFCFC801DF91CF911F91F3
:102200000F91FF90EF90DF90CF9008950895823066
:10221000E8F4E82FF0E0EE0FFF1FE85EFE4F718359
:102220006083813041F0809169008C7F842B8093A2
:102230006900E89A089580916900440F551F440F82
:10224000551F837F842B80936900E99A08951F921C
:102250000F920FB60F9211242F933F934F935F93DA
:102260006F937F938F939F93AF93BF93EF93FF935E
:10227000E0911801F09119010995FF91EF91BF913B
:10228000AF919F918F917F916F915F914F913F910E
:102290002F910F900FBE0F901F9018951F920F92C5
:1022A0000FB60F9211242F933F934F935F936F9329
:1022B0007F938F939F93AF93BF93EF93FF93E0919F
:1022C0001A01F0911B010995FF91EF91BF91AF9118
:1022D0009F918F917F916F915F914F913F912F913E
:1022E0000F900FBE0F901F901895CF93DF9300D0E3
:1022F00000D0CDB7DEB79B01AC016115710581053A
:10230000910569F069833A834B835C830E94E818E6
:1023100029813A814B815C810E941F1703C060E0D4
:1023200070E0CB010F900F900F900F90DF91CF9145
:102330000895CF92DF92EF92FF926B017C016217BA
:1023400073078407950764F4CA01B9016C197D0904
:102350008E099F090E9475116C0D7D1D8E1D9F1D9C
:10236000FF90EF90DF90CF9008950E94F6180895A7
:1023700008950E9476120E94B8110E948D01C1E258
:10238000DFE00E9481022097E1F30E94210FF9CF44
:102390000C940A181F920F920FB60F9211242F93CC
:1023A0003F938F939F93AF93BF9380919A059091A2
:1023B0009B05A0919C05B0919D053091990523E066
:1023C000230F2D3720F40196A11DB11D05C026E86D
:1023D000230F0296A11DB11D2093990580939A05A4
:1023E00090939B05A0939C05B0939D0580919E05BD
:1023F00090919F05A091A005B091A1050196A11D06
:10240000B11D80939E0590939F05A093A005B09366
:10241000A105BF91AF919F918F913F912F910F9007
:102420000FBE0F901F9018952FB7F89460919A05E2
:1024300070919B0580919C0590919D052FBF0895FB
:102440003FB7F89480919E0590919F05A091A005BB
:10245000B091A10526B5A89B05C02F3F19F00196A4
:10246000A11DB11D3FBF6627782F892F9A2F620FBC
:10247000711D811D911D42E0660F771F881F991FF6
:102480004A95D1F70895CF92DF92EF92FF92CF93C2
:10249000DF936B017C010E942012EB01C114D10477
:1024A000E104F10489F00E94B7110E9420126C1B14
:1024B0007D0B683E734090F381E0C81AD108E108B3
:1024C000F108C851DC4FEACFDF91CF91FF90EF9038
:1024D000DF90CF9008958230910538F0880F991FD2
:1024E000880F991F05970197F1F70895789484B59F
:1024F000826084BD84B5816084BD85B5826085BD00
:1025000085B5816085BDEEE6F0E0808181608083E5
:10251000E1E8F0E0108280818260808380818160C8
:102520008083E0E8F0E0808181608083E1EBF0E08F
:10253000808184608083E0EBF0E080818160808333
:10254000EAE7F0E08081846080838081826080831C
:102550008081816080838081806880831092C10047
:102560000895833081F028F4813099F08230A1F011
:1025700008958730A9F08830B9F08430D1F4809183
:1025800080008F7D03C0809180008F7780938000D2
:10259000089584B58F7702C084B58F7D84BD08957A
:1025A0008091B0008F7703C08091B0008F7D8093C1
:1025B000B0000895CF93DF9390E0FC01E35FFE4FFE
:1025C0002491FC01EF5DFE4F8491882349F190E056
:1025D000880F991FFC01E75BFE4FA591B491815CC8
:1025E0009E4FFC01C591D4919FB7611108C0F8942A
:1025F0008C91209582238C93888182230AC062303B
:1026000051F4F8948C91322F309583238C938881E8
:10261000822B888304C0F8948C91822B8C939FBF6B
:10262000DF91CF9108950F931F93CF93DF931F9264
:10263000CDB7DEB7282F30E0F901E750FF4F849186
:10264000F901E35FFE4F1491F901EF5DFE4F049134
:102650000023C9F0882321F069830E94B1126981A7
:10266000E02FF0E0EE0FFF1FE15CFE4FA591B4916B
:102670009FB7F8948C91611103C01095812301C01C
:10268000812B8C939FBF0F90DF91CF911F910F9162
:102690000895CF93DF93282F30E0F901E750FF4FE3
:1026A0008491F901E35FFE4FD491F901EF5DFE4F94
:1026B000C491CC2391F081110E94B112EC2FF0E073
:1026C000EE0FFF1FEB5CFE4FA591B4912C912D23D3
:1026D00081E090E021F480E002C080E090E0DF91B2
:1026E000CF9108955058BB27AA270ED07AC16BD13D
:1026F00030F070D120F031F49F3F11F41EF460C12E
:102700000EF4E095E7FB48C1E92F7CD180F3BA17BE
:10271000620773078407950718F071F49EF594C15A
:102720000EF4E0950B2EBA2FA02D0B01B9019001EC
:102730000C01CA01A0011124FF27591B99F0593F30
:1027400050F4503E68F11A16F040A22F232F342F78
:102750004427585FF3CF469537952795A795F040C6
:102760005395C9F77EF41F16BA0B620B730B840BDB
:10277000BAF09150A1F0FF0FBB1F661F771F881F93
:10278000C2F70EC0BA0F621F731F841F48F48795EB
:1027900077956795B795F7959E3F08F0B3CF9395DA
:1027A000880F08F09927EE0F9795879508950CD01C
:1027B00018C110D140F007D130F021F45F3F19F07B
:1027C000EBC0511142C1FCC01DD198F39923C9F34C
:1027D0005523B1F3951B550BBB27AA276217730727
:1027E000840738F09F5F5F4F220F331F441FAA1FDB
:1027F000A9F333D00E2E3AF0E0E830D0915050409B
:10280000E695001CCAF729D0FE2F27D0660F771F48
:10281000881FBB1F261737074807AB07B0E809F02A
:10282000BB0B802DBF01FF2793585F4F2AF09E3FBF
:10283000510568F0B1C009C15F3FECF3983EDCF38D
:10284000869577956795B795F7959F5FC9F7880F38
:10285000911D9695879597F90895E1E0660F771F8A
:10286000881FBB1F621773078407BA0720F0621B1B
:10287000730B840BBA0BEE1F88F7E0950895CAD04E
:1028800088F09F5790F0B92F9927B751A0F0D1F059
:10289000660F771F881F991F1AF0BA95C9F712C0E3
:1028A000B13081F0D1D0B1E00895CEC0672F782F3C
:1028B0008827B85F39F0B93FCCF38695779567954F
:1028C000B395D9F73EF490958095709561957F4FBB
:1028D0008F4F9F4F0895E89409C097FB3EF4909561
:1028E0008095709561957F4F8F4F9F4F9923A9F0E9
:1028F000F92F96E9BB279395F69587957795679578
:10290000B795F111F8CFFAF4BB0F11F460FF1BC0BB
:102910006F5F7F4F8F4F9F4F16C0882311F096E94E
:1029200011C0772321F09EE8872F762F05C06623FC
:1029300071F096E8862F70E060E02AF09A95660FB5
:10294000771F881FDAF7880F9695879597F908956E
:10295000990F0008550FAA0BE0E8FEEF16161706B0
:10296000E807F907C0F012161306E407F50798F018
:10297000621B730B840B950B39F40A2661F0232B31
:10298000242B252B21F408950A2609F4A140A695AD
:102990008FEF811D811D089597F99F6780E870E092
:1029A00060E008959F3F31F0915020F4879577952E
:1029B0006795B795880F911D9695879597F9089516
:1029C0009FEF80EC089500240A9416161706180647
:1029D0000906089500240A94121613061406050623
:1029E0000895092E0394000C11F4882352F0BB0FB4
:1029F00040F4BF2B11F460FF04C06F5F7F4F8F4F17
:102A00009F4F089557FD9058440F551F59F05F3F51
:102A100071F04795880F97FB991F61F09F3F79F000
:102A200087950895121613061406551FF2CF469582
:102A3000F1DF08C0161617061806991FF1CF869504
:102A40007105610508940895E894BB2766277727E8
:102A5000CB0197F908957CDF08F48FEF08950BD030
:102A6000C0CFB1DF28F0B6DF18F0952309F094CF7E
:102A7000A7CF1124EACFC6DFA0F3959FD1F3950F1E
:102A800050E0551F629FF001729FBB27F00DB11DF2
:102A9000639FAA27F00DB11DAA1F649F6627B00D82
:102AA000A11D661F829F2227B00DA11D621F739F6B
:102AB000B00DA11D621F839FA00D611D221F749F79
:102AC0003327A00D611D231F849F600D211D822FC0
:102AD000762F6A2F11249F5750408AF0E1F0882307
:102AE0004AF0EE0FFF1FBB1F661F771F881F915014
:102AF0005040A9F79E3F510570F04ECFA6CF5F3FE3
:102B0000ECF3983EDCF3869577956795B795F79546
:102B1000E7959F5FC1F7FE2B880F911D96958795CE
:102B200097F90895FA01EE0FFF1F30962105310540
:102B300099F16115710561F48038BFE39B0749F194
:102B400068949038810561F08038BFEF9B0741F0B1
:102B5000992342F5FF3FE1053105210511F1E89484
:102B60000894E795D901AA2329F4AB2FBE2FF85F6B
:102B7000D0F310C0FF5F70F4A695E0F7F73950F07E
:102B800019F0FF3A38F49F779F930CD00F9007FC11
:102B9000905808953EF014CF60E070E080E89FE325
:102BA00008954FE79F775F934F933F932F939ED066
:102BB0002F913F914F915F9152DF05C019F40EF0B4
:102BC000EBCE42CFFDCE26DFC8F39638C0F707F82C
:102BD0000F92E8942BE33AEA48EB5FE74EDF0F925F
:102BE0000F920F924DB75EB70F92C0D0E8E6F0E0BB
:102BF00016D04F915F91EF91FF91E595EE1FFF1F6A
:102C000049F0FE57E0684427EE0F441FFA95E1F7BC
:102C10004195550B32D00F9007FE26C00895DF93E3
:102C2000CF931F930F93FF92EF92DF927B018C0162
:102C3000689405C0DA2EEF011EDFFE01E894A5912D
:102C40002591359145915591AEF3EF015DDDFE0182
:102C50009701A801DA9479F7DF90EF90FF900F9138
:102C60001F91CF91DF9108959B01AC0160E070E06E
:102C700080E89FE39CCD90CE95CECCDEE8F39923FF
:102C8000D9F3940F511DBBF39150504094F059F07B
:102C9000882332F0660F771F881F91505040C1F78C
:102CA0009E3F510544F7880F911D9695879597F99A
:102CB00008955F3FACF0983E9CF0BB2786957795D2
:102CC0006795B79508F4B1609395C1F7BB0F58F7B6
:102CD00011F460FFE8CF6F5F7F4F8F4F9F4FE3CFBF
:102CE000B4CE0EF05FCE6CCE689456CE93DEC8F3B1
:102CF0009923D1F3C6F3DF93CF931F930F93FF92E2
:102D0000C92FDD2788232AF02197660F771F881F98
:102D1000DAF720E030E040E85FEB9FE3883920F00D
:102D2000803E30F021968F77DEDCE0E9F0E003C0F2
:102D3000DADCEDEBF0E073DF8B01BE01EC01FB2E82
:102D40006F5771097595771F880B990BC6DD28E1C0
:102D500032E741E35FE38FDEAF2D9801AE01FF90D4
:102D60000F911F91CF91DF91CFDC3BCEFA01DC01B7
:102D7000AA0FBB1F9B01AC01BF5728F422273327A2
:102D8000442750781FC0B75188F4AB2F00244695D4
:102D900037952795011CA395D2F3002069F0220FE7
:102DA000331F441FB395DAF30DD09CCC613071050D
:102DB000A0E88A07B94630F49B01AC016627772763
:102DC00088279078309621F0208331834283538383
:102DD000089597FB072E16F4009407D077FD09D0CD
:102DE0000E944F1707FC05D03EF4909581959F4FA8
:102DF0000895709561957F4F0895A1E21A2EAA1B40
:102E0000BB1BFD010DC0AA1FBB1FEE1FFF1FA2179A
:102E1000B307E407F50720F0A21BB30BE40BF50B97
:102E2000661F771F881F991F1A9469F76095709520
:102E3000809590959B01AC01BD01CF010895052EB1
:102E400097FB1EF400940E94361757FD07D00E948E
:102E5000FD1607FC03D04EF40C94361750954095A0
:102E6000309521953F4F4F4F5F4F08959095809536
:102E7000709561957F4F8F4F9F4F0895EE0FFF1F05
:102E80000590F491E02D09940E946317A59F900D81
:102E9000B49F900DA49F800D911D11240895AA1B2D
:102EA000BB1B51E107C0AA1FBB1FA617B70710F035
:102EB000A61BB70B881F991F5A95A9F78095909567
:102EC000BC01CD010895A29FB001B39FC001A39F93
:102ED000700D811D1124911DB29F700D811D112453
:102EE000911D0895CF93DF938230910510F482E015
:102EF00090E0E091A405F091A50520E030E0A0E08D
:102F0000B0E0309739F14081518148175907B8F046
:102F10004817590771F482819381109729F013960D
:102F20009C938E9312972CC09093A5058093A40533
:102F300027C02115310531F04217530718F0A901B8
:102F4000DB0101C0EF019A01BD01DF010280F381C5
:102F5000E02DD7CF21153105F9F0281B390B24308E
:102F6000310580F48A819B816115710521F0FB0197
:102F70009383828304C09093A5058093A405FE01EA
:102F8000329644C0FE01E20FF31F819391932250C9
:102F90003109398328833AC02091A2053091A305D5
:102FA000232B41F420910201309103013093A305BA
:102FB0002093A205209100013091010121153105D6
:102FC00041F42DB73EB74091040150910501241BF7
:102FD000350BE091A205F091A305E217F307A0F4E9
:102FE0002E1B3F0B2817390778F0AC014E5F5F4F5F
:102FF0002417350748F04E0F5F1F5093A3054093E9
:10300000A2058193919302C0E0E0F0E0CF01DF914F
:10301000CF910895CF93DF93009709F487C0FC0107
:10302000329713821282C091A405D091A5052097F2
:1030300081F420813181280F391F8091A205909160
:10304000A3058217930779F5F093A305E093A205F2
:103050006DC0DE0120E030E0AE17BF0750F41296DD
:103060004D915C9113979D014115510509F1DA01CC
:10307000F3CFB383A28340815181840F951F8A17B8
:103080009B0771F48D919C911197840F951F029667
:103090009183808312968D919C9113979383828361
:1030A0002115310529F4F093A505E093A4053EC050
:1030B000D9011396FC93EE9312974D915D91A40F55
:1030C000B51FEA17FB0779F480819181840F951F62
:1030D0000296D90111969C938E93828193811396C7
:1030E0009C938E931297E0E0F0E08A819B81009799
:1030F00019F0FE01EC01F9CFCE0102962881398149
:10310000820F931F2091A2053091A305281739073C
:1031100069F4309729F41092A5051092A40502C015
:1031200013821282D093A305C093A205DF91CF91A1
:1031300008958F929F92AF92BF92CF92DF92EF92BB
:10314000FF92CF93DF93EC01688179818A819B8123
:10315000611571058105910521F464E279ED8BE536
:1031600097E02DE133EF41E050E00E941F17490145
:103170005A019B01AC01A7EAB1E40E9444176B011C
:103180007C01ACEEB4EFA50194010E941019C60EAB
:10319000D71EE81EF91EF7FE06C081E0C81AD10846
:1031A000E10880E8F80AC882D982EA82FB82C70176
:1031B000B6019F77DF91CF91FF90EF90DF90CF9096
:1031C000BF90AF909F908F9008950E949918089596
:1031D00086E091E00E94991808956093060170932B
:1031E00007018093080190930901089581E090E020
:1031F000F8940C941519FB01DC0102C005900D92A6
:1032000041505040D8F70895FB01DC0102C0019005
:103210000D9241505040D8F70895B7FF0C944417D1
:103220000E944417821B930B089511E0CAE5D1E078
:1032300004C0FE010E9440172296CC35D107C9F781
:04324000F894FFCF30
:103244000000A6058000010000000800120A050C19
:1032540048E8010098E1DA19061106115246455270
:103264005201060708090A0B0C0D0E0F1011121358
:103274001415161718191A1B1C1D1E1F2021222392
:10328400242526274B9A99F940666626419A99790E
:10329400416666A6410000FA41CDCC264200007A80
:1032A400420000FA4200007A430000FA4300C0F3EF
:1032B400450080224600C073460080A2460024F4E4
:1032C4004600E42247002474470024F44700247491
:1032D400480024F448000000006E04B4047404B5EB
:1032E40011B511B511B511C904BB044005F204723E
:1032F4000576047B047E0481048404870478048EA8
:10330400049104940497049A049E04A204A604A8B5
:1033140004AC04B00400000000B511D005D105B51B
:1033240011B511D505D905DD05D205D305D40500A0
:10333400000000ED05F405F50529062406D505D998
:1033440005DD05F6051306260600000000D506DB9C
:1033540006E206B511B511B511B511C904BB044097
:1033640005F204720576047B047E048104840487D8
:103374000478048E049104940497049A049E04A28D
:1033840004A604A804AC04B004A806BF0607070FEB
:10339400070D0E131516191A1C232526292A2C325B
:1033A4003400000000D909DF09820D6D0CC50AA2A2
:1033B4000CD709C904BB044005F2047205E6097B75
:1033C400047E0481048404870478048E04910494A4
:1033D4000497049A049E04A204110AA804AC04B03D
:1033E40004A806BF0607070F07D5090000000072EE
:0C33F4000FDE10F40E0D0FFF0E500F0046
:00000001FF
